:04000000C5EF04F054
:1000080000C016F001C015F09EA02AD09E90480EA0
:10001800CF6EE50ECE6E1D5203E0AED81D6A20D01D
:10002800170E266E000E276E190E286E000E296E0A
:100038001B0E2A6E000E2B6E5BEC04F017C026F028
:1000480018C027F019C028F01AC029F01BC02AF0E0
:100058001CC02BF035D900C026F0000E276EA4D89E
:0A00680016C000F015C001F01100F1
:10007200C7B409D01F0EC514016E0150000A03E176
:0A008200010E006E01D0006A1200AA
:10008C009E9630C0C9FFC7A401D0FDD79EB601D043
:10009C00FDD7C5BC02D0006A03D0C584020E006E29
:0200AC00120040
:0400AE00C5841200F3
:1000B2009E96C5869EB601D0FDD7C9CF01F03050BD
:1000C200000A02E1C58A01D0C59A9E96C5889EB6ED
:0A00D20001D0FDD701C000F01200BC
:1000DC009398939C8A988A9C9388938CC79EC79C70
:0600EC00380EC66E120082
:1000F200220E0C6E086A096A0A6A0B6A0C06D8B4E8
:100102001FD0D8900B320A3209320832033202323F
:1001120001320032D8A0F2D70C06D8B409D004506C
:1001220008260550092206500A2207500B22EAD758
:10013200045008260550092206500A2207500B22B5
:020142001200A9
:10014400306A316A3150120802E130508E0807E3F8
:100154008EDF005201E003D0304A312AF3D7120E69
:10016400315C02E18F0E305C03E37B0E006E05D040
:0C017400C580C5A001D0FDD7006A1200B4
:10018000936A816A020EC86EA9DFDCDF3C0E306E16
:100190007DDF306A7BDF700E306E78DF88DF120023
:1001A0000900F5CFE6FF0006FBE10106F9E11200C8
:1001B00010D0828E3ED0828C3CD082863AD082880B
:1001C00038D0828A36D0828434D0828232D0828003
:1001D00030D0000E271802E1010E2618EAE0000ECA
:1001E000271802E1020E2618E6E0000E271802E1A9
:1001F000030E2618E2E0000E271802E1040E26186E
:10020000DEE0000E271802E1050E2618DAE0000EE7
:10021000271802E1060E2618D6E0000E271802E184
:10022000070E2618D2E0000E271802E1080E261845
:10023000CEE0410E0C6EEE0E0D6E0D2EFED70C2E86
:10024000FCD7000010D0829E3ED0829C3CD082968B
:100250003AD0829838D0829A36D0829434D0829222
:1002600032D0829030D0000E271802E1010E2618FD
:10027000EAE0000E271802E1020E2618E6E0000E62
:10028000271802E1030E2618E2E0000E271802E10B
:10029000040E2618DEE0000E271802E1050E2618CF
:1002A000DAE0000E271802E1060E2618D6E0000E4E
:1002B000271802E1070E2618D2E0000E271802E1E7
:0802C000080E2618CEE0120022
:1002C8002750F00A02E1000E26180DE02950F00A26
:1002D80002E1000E281807E02B50F00A02E1000E98
:1002E8002A1801E002D0006AE1D226C001F027C036
:1002F80002F0000E27BEFF0E036E046E01C01EF052
:1003080002C01FF003C020F004C021F028C022F072
:1003180029C023F0000E29BEFF0E246E256E000EA4
:10032800006E041808E10050031805E10050021897
:1003380002E10150000A0FE1000E006E251808E1E5
:100348000050241805E10050231802E12250000A49
:1003580002E1006AABD2000E006E211808E10050DD
:10036800201805E100501F1802E11E50000A0FE195
:10037800800E2918006E800E005C02E1000E285CD9
:1003880003E2050E006E02D0010E006E8FD2000E41
:10039800006E251808E10050241805E100502318C4
:1003A80002E12250000A0FE1800E2718006E800E2D
:1003B800005C02E1000E265C03E2070E006E02D02C
:1003C800030E006E73D2800E006E800E2118005C42
:1003D80008E12050000805E11F50000802E11E5006
:1003E8000008D8B08DD0800E006E800E2518005CF5
:1003F80008E12450000805E12350000802E12250DA
:100408000008D8B07DD022C000F023C001F024C07D
:1004180002F025C003F0100E046E270E056E000EC4
:10042800066E000E076E61DE00C02CF001C02DF0D4
:1004380002C02EF003C02FF01EC000F01FC001F054
:1004480020C002F021C003F02E0E046E100E056EBF
:10045800000E066E000E076E48DE800E2F18046E22
:10046800800E0318045C08E102502E5C05E101507F
:100478002D5C02E100502C5C03E2030E006E16D2E4
:100488001EC000F01FC001F020C002F021C003F020
:10049800100E046E270E056E000E066E000E076E17
:1004A80024DE00C02CF001C02DF002C02EF003C0E5
:1004B8002FF022C000F023C001F024C002F025C0B4
:1004C80003F02E0E046E100E056E000E066E000E62
:1004D800076E0BDE800E2F18046E800E0318045C66
:1004E80008E102502E5C05E101502D5C02E100504C
:1004F8002C5C03E2010E006ED9D1020E006ED6D13B
:10050800800E2118006E800E005C08E1000E205C51
:1005180005E1000E1F5C02E1000E1E5CD8B095D00C
:10052800800E006E800E2518005C08E1245000083B
:1005380005E12350000802E122500008D8B085D018
:1005480022C000F023C001F024C002F025C003F04F
:10055800100E046E270E056E000E066E000E076E56
:10056800C4DD00C02CF001C02DF002C02EF003C085
:100578002FF0006A016A026A036A1E50005E1F506B
:10058800015A2050025A2150035A2E0E046E100EA2
:10059800056E000E066E000E076EA7DD800E2F1882
:1005A800046E800E0318045C08E102502E5C05E11D
:1005B80001502D5C02E100502C5C03E2070E006E36
:1005C80075D1006A016A026A036A1E50005E1F50F4
:1005D800015A2050025A2150035A100E046E270E59
:1005E800056E000E066E000E076E7FDD00C02CF053
:1005F80001C02DF002C02EF003C02FF022C000F081
:1006080023C001F024C002F025C003F02E0E046EB2
:10061800100E056E000E066E000E076E66DD800E6B
:100628002F18046E800E0318045C08E102502E5C3B
:1006380005E101502D5C02E100502C5C03E2010E43
:10064800006E34D1080E006E31D1800E2118006E74
:10065800800E005C08E1000E205C05E1000E1F5CC6
:1006680002E1000E1E5CD8B09DD0800E2518006EE9
:10067800800E005C08E1000E245C05E1000E235C9E
:1006880002E1000E225CD8B08DD0006A016A026ACD
:10069800036A2250005E2350015A2450025A255002
:1006A800035A100E046E270E056E000E066E000E1D
:1006B800076E1BDD00C02CF001C02DF002C02EF02B
:1006C80003C02FF0006A016A026A036A1E50005EC6
:1006D8001F50015A2050025A2150035A2E0E046E00
:1006E800100E056E000E066E000E076EFEDC800E04
:1006F8002F18046E800E0318045C08E102502E5C6B
:1007080005E101502D5C02E100502C5C03E2070E6C
:10071800006ECCD0006A016A026A036A1E50005E4D
:100728001F50015A2050025A2150035A100E046ECD
:10073800270E056E000E066E000E076ED6DC00C092
:100748002CF001C02DF002C02EF003C02FF0006A7B
:10075800016A026A036A2250005E2350015A24503B
:10076800025A2550035A2E0E046E100E056E000E06
:10077800066E000E076EB9DC800E2F18046E800E10
:100788000318045C08E102502E5C05E101502D5C61
:1007980002E100502C5C03E2050E006E87D0060EC5
:1007A800006E84D0006A016A026A036A2250005E01
:1007B8002350015A2450025A2550035A100E046E31
:1007C800270E056E000E066E000E076E8EDC00C04A
:1007D8002CF001C02DF002C02EF003C02FF01EC077
:1007E80000F01FC001F020C002F021C003F02E0E5F
:1007F800046E100E056E000E066E000E076E75DC98
:10080800800E2F18046E800E0318045C08E1025055
:100818002E5C05E101502D5C02E100502C5C03E2E6
:10082800030E006E43D01EC000F01FC001F020C0B0
:1008380002F021C003F0100E046E270E056E000EA4
:10084800066E000E076E51DC00C02CF001C02DF0C2
:1008580002C02EF003C02FF0006A016A026A036A20
:100868002250005E2350015A2450025A2550035A40
:100878002E0E046E100E056E000E066E000E076E2C
:1008880034DC800E2F18046E800E0318045C08E117
:1008980002502E5C05E101502D5C02E100502C5CF9
:0E08A80003E2050E006E02D0040E006E120078
:1008B60046DC3C0E306E46EC00F0020E306E46EC26
:1008C60000F0010E306E46EC00F057EC00F0310EF1
:1008D6000C6EB20E0D6E0D2EFED70C2EFCD7000040
:1008E6002EDC3D0E306E46EC00F0010E306E59ECFB
:1008F60000F000C02DF02C6A010E306E59EC00F0AD
:10090600000E016E2C5000122D50011226C0E1FF80
:1009160027C0E2FF00C0E6FF01C0E6FF010E306E11
:1009260059EC00F000C02DF02C6A010E306E59EC27
:1009360000F0000E016E2C5000122D5001122AC03C
:10094600E1FF2BC0E2FF00C0E6FF01C0E6FF010E9B
:10095600306E59EC00F000C02DF02C6A306A59EC6C
:1009660000F0000E016E2C5000122D50011228C00E
:10097600E1FF29C0E2FF00C0E6FF01C0E6FF57EC39
:0409860000F012006B
:10098A00176A186A196A1A6A1B6A1C6A010E1D6EAE
:10099A00070E6B6E6BCF6DFF7F6A7E6AD38E946A89
:1009AA00829482B402D0829A01D0828A82BA02D018
:1009BA00829801D0828882B802D0829601D082863B
:1009CA0082B602D0829C01D0828C82BC02D0829EE6
:0C09DA0001D0828EFF0E826E0300FFD75A
:020000040030CA
:0D00010028131EFF08C1FF03C003E00340E9
:00000001FF
